:100000005DC0000078C0000076C0000074C0000031
:1000100072C0000070C000006EC000006CC0000024
:100020006AC0000068C0000066C0000064C0000034
:1000300062C0000060C000005EC000005CC0000044
:100040005AC0000058C0000056C0000054C0000054
:1000500095C0000050C000004EC000004CC0000021
:100060004AC0000048C0000046C0000044C0000074
:1000700098C0000040C000003EC000003CC000002E
:100080003AC0000038C0000036C00000FC021B036C
:1000900010031B031B03EC021B03F002F4021B03FF
:1000A000080304031B031B031B031B031B03140391
:1000B0001B0300030C031B031803F80211241FBECB
:1000C000CFEFD0E4DEBFCDBF11E0A0E0B1E0E4ECC3
:1000D000F8E000E00BBF02C007900D92A230B1071C
:1000E000D9F721E0A2E0B1E001C01D92A632B2072B
:1000F000E1F7A2D2E5C384CF181619065CF420E01C
:1001000030E045E04A95F1F700002F5F3F4F281798
:100110003907B9F708952D9828980895E8ECF0E08C
:10012000808186FFFDCF08951092C50088E08093FE
:10013000C400E1ECF0E0808188698083E2ECF0E0CB
:10014000808186608083089584B1816284B9109231
:10015000CD001092CC00E9ECF0E0808188698083CA
:10016000EAECF0E08081866080830895E8ECF0E0BE
:10017000908195FFFDCF8093CE0008951F920F923E
:100180000FB60F9211248F938091C60080932501A2
:1001900081E0809324018F910F900FBE0F901F90EC
:1001A00018951F920F920FB60F9211240BB60F9253
:1001B0008F93EF93FF9380910E01811105C01092F0
:1001C0000F0181E080930E01E0910F01F0E080913A
:1001D000CE00E05FFE4F808380910F018F5F8093A0
:1001E0000F01FF91EF918F910F900BBE0F900FBEFB
:1001F0000F901F901895EF92FF920F931F93CF933C
:10020000DF93C22FD0E07E0193E0E90EF11C1C16B3
:100210001D0674F4A02FB12FE0E0F0E020E030E004
:100220009D91290F311D3196EC17FD07CCF302C0CB
:1002300020E030E0F701E80FF11DCF01840F911DA0
:10024000860F911D280F391FC901907899231CF43E
:1002500001979F6F01968095DF91CF911F910F912C
:10026000FF90EF9008952F923F924F925F926F927E
:100270007F928F929F92AF92BF92CF92DF92EF9236
:10028000FF920F931F93CF93DF93CDB7DEB72797DE
:100290000FB6F894DEBF0FBECDBF482E362E242EEB
:1002A000590178014DB75EB75F834E83098323E020
:1002B000200F822F90E09D838C830496EDB7FEB7CC
:1002C000E81BF90B0FB6F894FEBF0FBEEDBF4DB79C
:1002D0005EB74F5F5F4F3A014A018FEF8183FA01AA
:1002E000818342822383648325826801FFEFCF1AD2
:1002F000DF0A1C141D043CF580E090E0512C9301B2
:10030000200F311FA9014A5F5F4F5B834A83E816C4
:10031000F90651F485012981422D632D842D6BDF6F
:10032000EA81FB81808309C0D401A80FB91FF501C0
:10033000E50DF11D208116962C935394852D90E0A8
:100340008C159D0524F3F8940C811D810C5F1F4FC3
:10035000E12CF12CF30181913F0108DFFFEFEF1A4F
:10036000FF0AE016F106B4F3789486E990E0C4DE63
:100370004E815F810FB6F8945EBF0FBE4DBF2796CA
:100380000FB6F894DEBF0FBECDBFDF91CF911F91A6
:100390000F91FF90EF90DF90CF90BF90AF909F9024
:1003A0008F907F906F905F904F903F902F90089527
:1003B000FF920F931F93CF93DF9300D000D0CDB760
:1003C000DEB7F82E062F172FBA01882777FD809504
:1003D000982FE4D128EF33E543EE5DE349D1B0D166
:1003E00009831A836B837C8304E010E09E012F5FF6
:1003F0003F4F4EE163E08F2D36DF90DE0F900F9080
:100400000F900F90DF91CF911F910F91FF90089562
:100410008AE897E090930301809302018FEF95E0C3
:1004200090930501809304018DEF97E0909307016D
:10043000809306018BE995E0909309018093080170
:1004400081E391E090930B0180930A0188EA92E0A6
:1004500090930D0180930C01089540E050E06FEF00
:1004600075E082E0A5DF40E050E06DEF77E083E0EB
:100470009FDF40E050E06BE975E084E099DF40E009
:1004800050E068EA72E086E093DF40E050E061E32C
:1004900071E085E08DDF40E050E06AE877E081E0E0
:1004A00087CF08950F931F93CF93DF93009100019F
:1004B000109101010115110591F1E0E0F0E0A82F84
:1004C000B0E0AA0FBB1FA050BF4F8550222391F070
:1004D000CD91DC911197C617D707E8F4823028F444
:1004E00021961196DC93CE9316C025961196DC9337
:1004F000CE9311C0CD91DC9111974C175D0758F444
:10050000823028F421971196DC93CE9304C025976E
:100510001196DC93CE933196E017F107B8F2DF9194
:10052000CF911F910F910895CF93C82F8330E1F0A1
:1005300028F4813049F0823079F035C0853021F1DE
:10054000D8F0863049F12FC0262F40E050E06FEF01
:100550007FE081E0A7DF27C0262F40E050E06FEF6B
:100560007FE082E09FDF1FC0262F40E050E06FEF6A
:100570007FE083E097DF17C0262F40E050E06FEF69
:100580007FE084E08FDF0FC0262F40E050E06FEF68
:1005900073E085E087DF07C0262F40E050E06FEF73
:1005A00073E086E07FDFEC2FF0E0EE0FFF1FE050FE
:1005B000FF4F6081718140E050E08C2FF9DECF91D8
:1005C000089590E0FC01E354F109E831F10508F0E9
:1005D00032C0EA5BFF4F6EC160E081E0A5CF0895B5
:1005E00061E081E0A1CF089560E082E09DCF0895B1
:1005F00061E082E099CF089560E083E095CF0895AF
:1006000061E083E091CF089560E084E08DCF0895AC
:1006100061E084E089CF089560E085E085CF0895AA
:1006200061E085E081CF089560E086E07DCF0895A8
:1006300061E086E079CF089577DD86DD6CDD789422
:100640000CDF88EE93E058DDE3DE83E090E09093EA
:1006500001018093000180912401882329F01092E8
:10066000240180912501ADDF80E197E245DDF3CFE4
:100670000CD0E6C0DED040F0D5D030F021F45F3FA2
:1006800019F0C7C0511110C1CAC0EBD098F399231B
:10069000C9F35523B1F3951B550BBB27AA27621746
:1006A0007307840738F09F5F5F4F220F331F441F8B
:1006B000AA1FA9F333D00E2E3AF0E0E830D09150C3
:1006C0005040E695001CCAF729D0FE2F27D0660FB0
:1006D000771F881FBB1F261737074807AB07B0E8EF
:1006E00009F0BB0B802DBF01FF2793585F4F2AF005
:1006F0009E3F510568F08DC0D7C05F3FECF3983E38
:10070000DCF3869577956795B795F7959F5FC9F761
:10071000880F911D9695879597F90895E1E0660FEA
:10072000771F881FBB1F621773078407BA0720F063
:10073000621B730B840BBA0BEE1F88F7E0950895CC
:1007400098D088F09F5790F0B92F9927B751A0F013
:10075000D1F0660F771F881F991F1AF0BA95C9F755
:1007600012C0B13081F09FD0B1E008959CC0672FD6
:10077000782F8827B85F39F0B93FCCF38695779505
:100780006795B395D9F73EF49095809570956195EE
:100790007F4F8F4F9F4F0895E89409C097FB3EF419
:1007A00090958095709561957F4F8F4F9F4F9923BE
:1007B000A9F0F92F96E9BB279395F695879577953C
:1007C0006795B795F111F8CFFAF4BB0F11F460FFFC
:1007D0001BC06F5F7F4F8F4F9F4F16C0882311F054
:1007E00096E911C0772321F09EE8872F762F05C068
:1007F000662371F096E8862F70E060E02AF09A9503
:10080000660F771F881FDAF7880F9695879597F9F7
:10081000089597F99F6780E870E060E008959FEF82
:1008200080EC089500240A94161617061806090687
:10083000089500240A941216130614060506089556
:10084000092E0394000C11F4882352F0BB0F40F4DE
:10085000BF2B11F460FF04C06F5F7F4F8F4F9F4F1E
:10086000089557FD9058440F551F59F05F3F71F0A0
:100870004795880F97FB991F61F09F3F79F0879507
:100880000895121613061406551FF2CF4695F1DF90
:1008900008C0161617061806991FF1CF8695710520
:1008A000610508940895E894BB2766277727CB0154
:1008B00097F90895EE0FFF1F0590F491E02D09942C
:0408C000F894FFCFDA
:0208C400010031
:00000001FF
